:040000006DEF08F0A8
:100F00000009111A222B333C444D555E666F7780E1
:100F1000889199A2AAB3BBC4CCD5DDE6EEF7FFF762
:100F2000EEE6DDD5CCC4BBB3AAA299918880776FD9
:100F3000665E564D443C332B221A11090000000016
:100F400000000000000000000000000000000000A1
:100F50000000000000000000000000FFFFFFFFFF96
:100F6000FFFFFFFFFFFFFFFFFFFFFFFFFFFFFFFF91
:100F7000FFFFFFFFFFFFFFFFFFFEFEFCF9F4EEE7C0
:100F8000DED5CABFB3A79A8D7F7265584C40352A0B
:100F90002118110B060301000103060B1118212A69
:100FA00035404C586572808D9AA7B3BFCAD5DEE72D
:100FB000EEF4F9FCFE0240010000000E0A6E0A5039
:100FC000790F096E09C0F6FF0F0EF76E0800F55095
:100FD00048EC08F0070E096E7D0EE82EFED7092EAC
:100FE000FCD700000A2A3B0E0A64F9EF07F0FBEF7A
:100FF00007F0DFEF07F0DDEF07F01200080EA76E35
:10100000900EAB6E240EAC6E080EAF6E020E7D6EAF
:10101000000E076E000E086E78EC08F0000E076EEA
:10102000000E086E73EC08F0000E076E000E086EDE
:101030007DEC08F0000E0B6E1200000E896E000EA3
:101040008A6E000E8B6ECF0E926E9368970E946E22
:101050001F0E0F015D6F070E5C6F000E5B6FF18E50
:101060001200076E07C0C9FF9EA639EF08F03BEFDC
:1010700008F034EF08F09E96C950120052EC08F0C8
:10108000C68A898ADDEC07F042EF08F000EF00F035
:10109000086E899A110E31EC08F0085031EC08F016
:1010A000898A12005BEC08F01DEC08F064EC08F093
:1010B000FEEC07F01200400EC76E020EC66E010E67
:1010C000C86E9496C69A1200600ED36E000ED26E51
:1010D000000E9B6E000E9A6E12000B6A000EF86EE8
:1010E00000013EEF08F007C003F008C004F0120052
:1010F00007C005F008C006F0120007C001F008C0E4
:0411000002F01200E7
:020000040020DA
:08000000FFFFFFFFFFFFFFFF00
:020000040030CA
:0E00000015027F50FF8991FF0FC00FE00F40E7
:00000001FF
